:100000000C94B5000C945B010C94D2000C94D200BB
:100010000C94D2000C94D2000C94D2000C94D20018
:100020000C94D2000C94D2000C94D2000C94D20008
:100030000C94D2000C94D2000C94D2000C94D200F8
:100040000C94D2000C94D2000C94E1010C94D200D8
:100050000C94D2000C94D2000C94D2000C94D200D8
:100060000C94D2000C94D2006E616E00696E660032
:1000700000407A10F35A00A0724E18090010A5D45F
:10008000E80000E87648170000E40B54020000CABC
:100090009A3B000000E1F505000080969800000002
:1000A00040420F000000A086010000001027000061
:1000B0000000E803000000006400000000000A00E7
:1000C000000000000100000000002C76D888DC67EA
:1000D0004F0823DFC1DFAE59E1B1B796E5E3E45342
:1000E000C63AE651997696E8E6C28426EB898C9B5F
:1000F00062ED407C6FFCEFBC9C9F40F2BAA56FA5FF
:10010000F490055A2AF75C936B6CF9676DC11BFC80
:10011000E0E40D47FEF520E6B500D0ED902E03009B
:10012000943577050080841E080000204E0A0000E8
:1001300000C80C333333330F986E12831141EF8DA7
:100140002114893BE65516CFFEE6DB18D1844B38E7
:100150001BF77C1D901DA4BBE424203284725E2218
:100160008100C9F124ECA1E53D2711241FBECFEF8A
:10017000D8E0DEBFCDBF11E0A0E0B1E0E0E0F4E107
:1001800002C005900D92A036B107D9F711E0A0E6A4
:10019000B1E001C01D92A439B107E1F70E946A01E4
:1001A0000C94FE090C94000084EA8093BC008091BA
:1001B000BC0087FFFCCF08958093BB0084E8809348
:1001C000BC008091BC0087FFFCCF8091B9000895EE
:1001D000CF92DF92EF92FF920F931F93CF93DF9313
:1001E00000D0CDB7DEB76A01E22E6A8389830E9410
:1001F000D4009091B90089818E7F0E94DC006A81D1
:10020000862F0E94DC00C114D10469F0FE2C860107
:10021000FF2039F0F80181918F010E94DC00FA94EF
:10022000F7CFCE0CD11C84E98093BC008C2D0F90AD
:100230000F90DF91CF911F910F91FF90EF90DF9082
:10024000CF9008950F931F93CF93DF9300D0CDB736
:10025000DEB78B016115710539F1442329F14A8319
:1002600089830E94D4009091B900898181600E94A5
:10027000DC004A81942FF8018091BC00913011F488
:100280008F7B01C080648093BC008091BC0087FF9D
:10029000FCCF8091BB008193915071F784E98093EA
:1002A000BC00802F840F00C00F900F90DF91CF9182
:1002B0001F910F9108951F920F920FB60F92112464
:1002C0004A9B02C02D9A01C02D980F900FBE0F902F
:1002D0001F901895CF93DF93CDB7DEB728970FB651
:1002E000F894DEBF0FBECDBF60E875E280E090E01D
:1002F0000E94700381E090E00E945D020E9464030E
:100300000E946B02809164008F778093640081E08B
:100310008093B90082E18093B8008091BC00846032
:100320008093BC0088E0F82E8E010F5F1F4FF8010C
:100330002F2D11922A95E9F780E9898321E0A80100
:1003400067E080ED0E94E800F8011192FA94E9F765
:1003500092E4C92E91E0D92E20E040E050E060E028
:1003600080ED0E94E8008CE191E00E94730948E072
:10037000B80180ED0E9422015801E12CF12CF50119
:1003800081915F011F928F93FF92EF92DF92CF9244
:100390000E945F09FFEFEF1AFF0A0F900F900F9076
:1003A0000F900F900F9028E0E216F10441F78FEFC5
:1003B00091EFEBE281509040E040E1F700C0000097
:1003C000CBCF1F920F920FB60F9211248F939F9352
:1003D000AF93BF93EF93FF93CF93DF9300D01F9220
:1003E000CDB7DEB78091C00084FD41C08091C600CA
:1003F0008B838091800190E001968F7199278A8389
:100400009A81809181019817F1F0E0918001F0E0EC
:100410008B81E05AFE4F80838A8180938001809196
:10042000820190918301A0918401B0918501019690
:10043000A11DB11D8093820190938301A09384013B
:10044000B09385012AC08091860190918701A09187
:100450008801B09189010196A11DB11D809386018B
:1004600090938701A0938801B093890116C0809171
:10047000C600898380918A0190918B01A0918C01A3
:10048000B0918D010196A11DB11D80938A019093B9
:100490008B01A0938C01B0938D010F900F900F9062
:1004A000DF91CF91FF91EF91BF91AF919F918F918C
:1004B0000F900FBE0F901F9018959091C1009F7BD9
:1004C0009093C10080FF05C08091C1008068809337
:1004D000C100789408958EE091E09093910180930B
:1004E000900180E091E090938F0180938E010895B8
:1004F000809180012091810190E08096821B91097A
:1005000060E270E00E94BE0708951F93CF93DF93CF
:1005100000D0CDB7DEB7182F69839A830E94780286
:1005200069819A81681708F4862FA12FB92F20E0DE
:1005300030E0281770F490918101F901E90FF11D65
:10054000EF71FF27E05AFE4F90819D932F5F3F4F41
:10055000F0CF0F900F90DF91CF911F910895CF9220
:10056000DF92EF92FF920F931F93CF93DF931F922F
:10057000CDB7DEB77C018B01411106C0909180019F
:1005800080918101981741F1C12CD12CC016D10660
:1005900030F549830E9478024981811103C04111DD
:1005A000F5CF1DC0C016D106D1F3E0918101F0E076
:1005B000E05AFE4F8081F701EC0DFD1D80832091F4
:1005C000810130E02F5F3F4F2F713327209381014E
:1005D0008FEFC81AD80ADDCF80E090E001C0C601D5
:1005E0000F90DF91CF911F910F91FF90EF90DF90CF
:1005F000CF9008953091800120918101321791F0C0
:10060000E0918101F0E0E05AFE4F2081FC0120835F
:100610008091810190E001968F71992780938101EB
:1006200081E0089580E00895CF93DF931F92CDB7C6
:10063000DEB71982CE0101960E94FA028823D1F317
:1006400089810F90DF91CF910895FC01860F971F4C
:10065000E817F90741F02091C00027FFFCCF209157
:10066000C6002193F5CF862F089561E070E00C94C9
:100670002503FC01860F971FE817F90741F0209129
:10068000C00025FFFCCF21912093C600F5CFCB0100
:100690000895CF93DF931F92CDB7DEB7898361E0D2
:1006A00070E0CE0101960E9439030F90DF91CF9147
:1006B0000895CF93C82F8A3019F48DE00E94590312
:1006C0008C2FCF910C9449031092800110928101DC
:1006D0008091C00087FF03C08091C600F9CF0895C4
:1006E000CF92DF92EF92FF926B017C0180916400C8
:1006F0008D7F809364001092C000C1148BE4D806F3
:10070000E104F10409F45DC060F5B0ECCB16B2E190
:10071000DB06E104F10409F451C080F4A0E6CA1636
:10072000A9E0DA06E104F10409F059C08091C000A3
:1007300082608093C00020E433E07FC0B0E8CB1635
:10074000B5E2DB06E104F10409F475C080E4C816E3
:1007500088E3D806E104F10409F041C024E430E064
:100760006CC0C114A1EEDA06E104F10469F180F471
:1007700080E8C81680E7D806E104F10451F1C114FD
:10078000A6E9DA06E104F10451F529E130E055C0AB
:10079000C114BCE2DB06B1E0EB06F104E9F0C114E0
:1007A00082ECD80681E0E806F104C9F48091C0002B
:1007B00082608093C00020E130E03FC02FEC30E049
:1007C0003CC023E330E039C08091C0008260809358
:1007D000C00022E230E031C02CE030E02EC0809139
:1007E000C00082608093C00060E079E08DE390E01B
:1007F000A70196010E94D2072150310941095109F0
:1008000056954795379527952115A0E13A07A8F009
:100810001092C00060E874E88EE190E0A7019601B4
:100820000E94D20721503109410951095695479537
:100830003795279502C027E630E03093C500209316
:10084000C4008EE2E0E6F1E0DF011D928A95E9F74F
:100850008091C20086608093C2008091C100806157
:100860008093C1008091C10088608093C1000E9484
:10087000640380E090E0FF90EF90DF90CF900895C8
:1008800080E691E00895A3E1B0E0E9E4F4E00C949F
:10089000F4077C011B016A01FC0117821682838127
:1008A00081FF66C3BE016F5F7F4F4B01F7019381EC
:1008B000F10193FD859193FF81911F01882309F434
:1008C00053C3853239F493FD859193FF81911F01C4
:1008D000853239F4B70190E00E942D095601650177
:1008E000E5CF10E0512C20E02032A0F48B3269F0EB
:1008F00030F4803259F0833269F420612CC08D329B
:1009000039F0803339F4216026C02260246023C08E
:10091000286021C027FD27C030ED380F3A3078F429
:1009200026FF06C0FAE01F9F300D1124132F13C0BD
:100930006AE0569E300D1124532E20620CC08E3278
:1009400021F426FD11C3206406C08C3611F4206802
:1009500002C0883641F4F10193FD859193FF8191A6
:100960001F018111C1CF9BEB980F933018F42061C8
:10097000805E06C09BE9980F933008F0AAC12F7ED5
:1009800026FF16E02F73722E853621F4F22FF064C5
:100990007F2E08C0863621F4622F6068762E02C052
:1009A0001111115077FE07C01C3348F444244394BE
:1009B000410E27E00BC0183030F4212F06C027E08D
:1009C0004CE3442E03C027E017E0412C560174E0AD
:1009D000A70EB11CF6016081718182819381042D83
:1009E000A4010E943F086C01098100FF02C003FFBF
:1009F00006C071FC07C072FC08C0612C08C03DE253
:100A0000632E05C02BE2622E02C090E2692E802F79
:100A10008C7099F1662011F084E001C083E08515A7
:100A200010F0512C0BC0581A73FC08C0B70180E2BB
:100A300090E00E942D095A94C9F7F3CF662029F05F
:100A4000B701862D90E00E942D0903FD03C00CE63E
:100A500010E002C008E610E0F72DF0717F2EF801DB
:100A60008491882309F476C271108052B70190E016
:100A70000E942D090F5F1F4FF2CF77FE0FC04C0C65
:100A800004FF04C08A81813309F44A94141474F574
:100A9000F8E0F41578F588E0482E2CC076FC2AC0E2
:100AA000812F90E08C159D059CF06CEFC6166FEFC2
:100AB000D60674F0772D7068772E0AC0E2E0F0E079
:100AC000EC0FFD1FE10FF11D8081803319F41150EF
:100AD0001111F4CF77FE0EC044244394410E812FB0
:100AE00090E0C816D9062CF41C1904C04424439481
:100AF00001C010E077FE07C01C141D043CF49601F1
:100B00002F5F3F4F05C025E030E002C021E030E01C
:100B1000662011F02F5F3F4F112331F0412F50E03D
:100B20004F5F5F4F240F351F452D50E024173507C9
:100B300014F4521A01C0512C872D897049F45520A4
:100B400039F0B70180E290E00E942D095A94F7CF66
:100B5000662029F0B701862D90E00E942D0973FCD4
:100B600009C0552039F0B70180E390E00E942D09BB
:100B70005A94F7CF77FE5FC09C2D8D2DD7FE02C013
:100B800090E080E0692E782E40E050E0C6018419A4
:100B900091099D878C87960126193709280D391DE3
:100BA000812F90E0EE27FF27E81BF90BFF87EE87E8
:100BB000FFEF6F167F0669F4B7018EE290E02B8B92
:100BC0003A8B488B598B0E942D09598948893A895B
:100BD0002B89C614D70454F06C857D85661577057E
:100BE0002CF4F901E40FF51F818101C080E371E06D
:100BF000671A71084F5F5F4FEE85FF856E167F069F
:100C00006CF0B70190E02B8B3A8B488B598B0E948C
:100C10002D092B893A8948895989CACF6C147D04DA
:100C200039F49A81963318F4953311F404FF81E373
:100C3000B70190E04BC08A81813309F00F7EB70184
:100C400090E00E942D09111105C074FE18C085E4C2
:100C500090E017C0B7018EE290E00E942D0982E07B
:100C600066246394680EF401E80FF11D8081B701DA
:100C700090E00E942D09115041F3862DF1CF85E6B9
:100C800090E0B7010E942D09D7FC05C0C114D10422
:100C900039F404FF05C0D194C194D1088DE201C09C
:100CA0008BE2B70190E00E942D0980E36AE0C6164E
:100CB000D1042CF08F5FFAE0CF1AD108F7CFB7013B
:100CC00090E00E942D09B701C601C0960E942D092F
:100CD00041C1833631F0833779F0833509F058C04C
:100CE00021C0560172E0A70EB11CF60180818983F4
:100CF00001E010E0640114C05601F2E0AF0EB11C37
:100D0000F601C080D18026FF03C0612F70E002C0D1
:100D10006FEF7FEFC6012B8B0E9422098C012B897C
:100D20002F7715C05601F2E0AF0EB11CF601C0805E
:100D3000D18026FF03C0612F70E002C06FEF7FEF0C
:100D4000C6012B8B0E9417098C012B892068722EFB
:100D500023FD1AC0852D90E008171907A8F4B701E4
:100D600080E290E00E942D095A94F4CFF60177FCBE
:100D7000859177FE81916F01B70190E00E942D0966
:100D800051105A94015011090115110579F7E2C06B
:100D9000843611F0893651F5560127FF09C0F4E079
:100DA000AF0EB11CF60160817181828193810AC00E
:100DB000F2E0AF0EB11CF60160817181882777FDEA
:100DC0008095982F022F0F7697FF08C090958095F9
:100DD000709561957F4F8F4F9F4F00682AE030E0FC
:100DE000A4010E94A009C82EC8183EC0022F853752
:100DF00021F40F7E2AE030E01DC0097F8F3691F08C
:100E000018F4883559F0B0C0803719F0883711F0E0
:100E1000ABC0006104FF09C0046007C024FF08C024
:100E2000066006C028E030E005C020E130E002C0E6
:100E300020E132E0560107FF09C0F4E0AF0EB11C1B
:100E4000F601608171818281938108C0F2E0AF0E6A
:100E5000B11CF6016081718180E090E0A4010E94E4
:100E6000A009C82EC8180F7706FF0BC0202F2E7FB1
:100E7000C11650F404FF0AC002FD08C0202F2E7EC8
:100E800005C0DC2C202F03C0DC2C01C0D12E24FF98
:100E90000DC0FE01EC0DF11D8081803311F4297E1F
:100EA00009C022FF06C0D394D39404C0822F867851
:100EB00009F0D39423FD13C020FF06C01C2DD514C8
:100EC00018F4150D1D19D52CD51468F4B70180E25E
:100ED00090E02B8B0E942D09D3942B89F5CFD5144C
:100EE00010F45D1801C0512C24FF12C0B70180E33B
:100EF00090E02B8B0E942D092B8922FF17C021FF28
:100F000003C088E590E002C088E790E0B7010CC01C
:100F1000822F867859F021FD02C080E201C08BE269
:100F200027FD8DE2B70190E00E942D09C11638F42B
:100F3000B70180E390E00E942D091150F7CFCA94C9
:100F4000F401EC0DF11D8081B70190E00E942D09A4
:100F5000C110F5CF552009F4C2CCB70180E290E072
:100F60000E942D095A94F6CFF7018681978102C01D
:100F70008FEF9FEF6396E2E10C94100897FB072E2A
:100F800016F4009407D077FD09D00E942B0807FCC7
:100F900005D03EF4909581959F4F08957095619589
:100FA0007F4F0895A1E21A2EAA1BBB1BFD010DC0A5
:100FB000AA1FBB1FEE1FFF1FA217B307E407F50709
:100FC00020F0A21BB30BE40BF50B661F771F881FE5
:100FD000991F1A9469F760957095809590959B017B
:100FE000AC01BD01CF0108952F923F924F925F92C5
:100FF0006F927F928F929F92AF92BF92CF92DF9229
:10100000EF92FF920F931F93CF93DF93CDB7DEB78D
:10101000CA1BDB0B0FB6F894DEBF0FBECDBF099421
:101020002A88398848885F846E847D848C849B8478
:10103000AA84B984C884DF80EE80FD800C811B8186
:10104000AA81B981CE0FD11D0FB6F894DEBF0FBEB5
:10105000CDBFED010895AA1BBB1B51E107C0AA1F1C
:10106000BB1FA617B70710F0A61BB70B881F991F49
:101070005A95A9F780959095BC01CD010895283027
:1010800008F027E03327DA01990F311D87FD9160C1
:1010900000966105710539F432602E5F3D9330E3AF
:1010A0002A95E1F708959F3F30F08038710561057A
:1010B00009F03C5F3C5F3D93913008F08068911DE2
:1010C000DF93CF931F930F93FF92EF92192F987F87
:1010D0009695E92F96959695E90FFF27E653FF4FD2
:1010E00099273327EE24FF24A701E70105900894F0
:1010F000079428F4360FE71EF81E491F511D660F8E
:10110000771F881F991F0694A1F70590079428F46C
:10111000E70EF81E491F561FC11D770F881F991F24
:10112000661F0694A1F70590079428F4F80E491F4E
:10113000561FC71FD11D880F991F661F771F069462
:10114000A1F70590079420F4490F561FC71FD81F19
:10115000990F661F771F881F0694A9F78491109531
:10116000177041F0D695C79557954795F794E79432
:101170001A95C1F7E0E7F0E0689415901591359164
:101180006591959105907FE27395E118F10A430B03
:10119000560BC90BD009C0F7E10CF11E431F561FB7
:1011A000C91FD01D7EF4703311F48A95E6CFE89400
:1011B000015030F0080F0AF40027021708F4202F1E
:1011C0002395022F7A3328F079E37D932A95E9F766
:1011D00010C07D932A9589F6069497956795379563
:1011E00017951794E118F10A430B560BC90BD00958
:1011F00098F023957E9173957A3308F070E37C9391
:101200002013B8F77E9170617D9330F0839571E380
:101210007D9370E32A95E1F71124EF90FF900F91F1
:101220001F91CF91DF91992787FD90950895FC013B
:101230000590615070400110D8F7809590958E0F01
:101240009F1F0895FC016150704001900110D8F774
:10125000809590958E0F9F1F08950F931F93CF93A6
:10126000DF93182F092FEB018B8181FD03C08FEFD6
:101270009FEF20C082FF10C04E815F812C813D8195
:10128000421753077CF4E881F9819F012F5F3F4F9C
:1012900039832883108306C0E885F985812F099555
:1012A000892B29F72E813F812F5F3F4F3F832E836C
:1012B000812F902FDF91CF911F910F910895A0E082
:1012C000B0E0E5E6F9E00C940408FE013596619182
:1012D0007191AF0180919001909191010E9443041E
:1012E000E2E00C9420080F931F93CF93DF93E091DB
:1012F0009001F0919101238121FF1BC0EC0100E0DE
:1013000010E089916091900170919101DB01189634
:10131000ED91FC911997882331F00995892B89F378
:101320000FEF1FEFEECF8AE00995892B11F4C8016A
:1013300002C08FEF9FEFDF91CF911F910F91089522
:10134000FA01AA27283051F1203181F1E8946F93F6
:101350006E7F6E5F7F4F8F4F9F4FAF4FB1E03ED09C
:10136000B4E03CD0670F781F891F9A1FA11D680F3A
:10137000791F8A1F911DA11D6A0F711D811D911D6D
:10138000A11D20D009F468943F912AE0269F1124E2
:101390003019305D3193DEF6CF010895462F477046
:1013A000405D4193B3E00FD0C9F7F6CF462F4F70A1
:1013B000405D4A3318F0495D31FD4052419302D0FF
:1013C000A9F7EACFB4E0A6959795879577956795A5
:1013D000BA95C9F700976105710508959B01AC01A5
:1013E0000A2E06945795479537952795BA95C9F7CC
:1013F000620F731F841F951FA01D0895F894FFCFDF
:1014000000000001000000000000140300000000C4
:1014100000020000000059030000000070747220F8
:101420003D203078303020686173206265656E2021
:1014300073656E74207375636365737366756C6C26
:101440007900446174612072656365697665643A08
:101450002025303264202D3E20253032780A0000CD
:00000001FF
