:100000000C94B5000C94D2000C94D2000C94D20045
:100010000C94D2000C94D2000C94D2000C94D20018
:100020000C94D2000C94D2000C94D2000C94D20008
:100030000C94D2000C94D2000C94D2000C94D200F8
:100040000C94D2000C94D2000C94D2000C94D200E8
:100050000C94D2000C94D2000C94D2000C94D200D8
:100060000C94D2000C94D2006E616E00696E660032
:1000700000407A10F35A00A0724E18090010A5D45F
:10008000E80000E87648170000E40B54020000CABC
:100090009A3B000000E1F505000080969800000002
:1000A00040420F000000A086010000001027000061
:1000B0000000E803000000006400000000000A00E7
:1000C000000000000100000000002C76D888DC67EA
:1000D0004F0823DFC1DFAE59E1B1B796E5E3E45342
:1000E000C63AE651997696E8E6C28426EB898C9B5F
:1000F00062ED407C6FFCEFBC9C9F40F2BAA56FA5FF
:10010000F490055A2AF75C936B6CF9676DC11BFC80
:10011000E0E40D47FEF520E6B500D0ED902E03009B
:10012000943577050080841E080000204E0A0000E8
:1001300000C80C333333330F986E12831141EF8DA7
:100140002114893BE65516CFFEE6DB18D1844B38E7
:100150001BF77C1D901DA4BBE424203284725E2218
:100160008100C9F124ECA1E53D2711241FBECFEF8A
:10017000D8E0DEBFCDBF11E0A0E0B1E0E2EAF7E1F8
:1001800002C005900D92A432B107D9F711E0A4E2A4
:10019000B1E001C01D92A532B107E1F70E94E20271
:1001A0000C94CF0B0C94000084EA8093BC008091E7
:1001B000BC0087FFFCCF08958093BB0084E8809348
:1001C000BC008091BC0087FFFCCF8091B9000895EE
:1001D000EF92FF921F93CF93DF9300D0CDB7DEB79E
:1001E0007A01122F6A8389830E94D4009091B9000A
:1001F00089818E7F0E94DC006A81862F0E94DC004C
:10020000E114F10449F0112339F0F70181917F01E4
:100210000E94DC001150F7CF84E98093BC00812F4D
:100220000F900F90DF91CF911F91FF90EF90089565
:100230000F931F93CF93DF9300D0CDB7DEB78B0121
:100240006115710521F1442311F14A8389830E94CC
:10025000D4009091B900898181600E94DC004A81BC
:100260008091BC00413011F48F7B01C08064809389
:10027000BC008091BC0087FFFCCF8091BB00F801DF
:1002800081938F01415061F784E98093BC0080E045
:100290000F900F90DF91CF911F910F9108955B9870
:1002A00008955B9A0895AF92BF92CF92DF92EF923A
:1002B000FF920F931F93CF93DF931F92CDB7DEB7BB
:1002C000882321F089830E94CF01898190912401A4
:1002D000992331F09AE19A95F1F700C01092240128
:1002E000882329F05A9A81E08093240101C05A980A
:1002F0005C9A3B983A98399838980E945101E2E00C
:10030000EA95F1F700C0309B02C000E101C000E0B7
:10031000319B02C010E201C010E0329B03C090E4A8
:10032000A92E01C0A12C339B03C080E8B82E01C0C8
:10033000B12C0E944F01F2E0FA95F1F700C00E9443
:10034000510182E08A95F1F700C0D6B0C6B0E6B0A0
:10035000F6B00E944F013B9A3A9A399A389A439ADA
:10036000429A419A409A5C988C2D82709D2D917092
:10037000892B9E2D9470892B9F2D9870892B802B13
:10038000812B8A298B290F90DF91CF911F910F919B
:10039000FF90EF90DF90CF90BF90AF900895CF93F4
:1003A000DF93C1EDD3E080E00E94530187FF03C0DB
:1003B00021972097C1F7DF91CF9108951F93CF9395
:1003C000DF931F92CDB7DEB7182F69830E94CF014C
:1003D000809124016981882331F08AE18A95F1F7BF
:1003E00000C010922401662329F05A9A81E080937C
:1003F000240103C05A981092240117FF02C0439AA7
:1004000001C0439816FF02C0429A01C0429815FFEE
:1004100002C0419A01C0419814FF02C0409A01C035
:10042000409800C00E945101E2E0EA95F1F700C057
:100430000E944F0113FF02C0439A01C0439812FF6C
:1004400002C0429A01C0429811FF02C0419A01C005
:10045000419810FF02C0409A01C0409800C00E941D
:100460005101F2E0FA95F1F700C00E944F01439A62
:10047000429A419A409A0F90DF91CF911F9108952F
:1004800081E00C94530160E00C94DE0180580C94E0
:10049000430281E00C94430282E00C94430261E049
:1004A0000C94DE01CF93DF93EC018991882319F03E
:1004B0000E944F02FACFDF91CF910895CF93DF933F
:1004C000FC018491EF012196882321F00E944F02C4
:1004D000FE01F7CFDF91CF910895539A529A549A23
:1004E0003B9A3A9A399A389A0E944F015A985C98E6
:1004F000439A429A419A409A8FE59AEE0197F1F712
:1005000000C000004398429800C00E94510192E050
:100510009A95F1F700C00E944F018FE090E4019797
:10052000F1F700C000000E94510192E09A95F1F7A6
:1005300000C00E944F018FE891E00197F1F700C0E1
:1005400000000E94510192E09A95F1F700C00E94CC
:100550004F0185ED8A95F1F70000409800C00E9498
:10056000510192E09A95F1F700C00E944F0185ED8C
:100570008A95F1F70000409800C00E94510192E076
:100580009A95F1F700C00E944F0182E08A95F1F739
:1005900000C0439A00C00E94510192E09A95F1F781
:1005A00000C00E944F0185ED8A95F1F7000088E0B8
:1005B0000E9443020E94490286E00E9443028CE0AE
:1005C0000C944302CF93DF93CDB7DEB7C854D10963
:1005D0000FB6F894DEBF0FBECDBF7E012AE3E20E58
:1005E000F11C88E0D7011D928A95E9F74E01B1E32D
:1005F0008B0E911C89E0F40111928A95E9F7CE01E6
:1006000001965C0180E2D5011D928A95E9F76E01A1
:10061000B1E2CB0ED11C80E1F60111928A95E9F787
:100620008E010E5B1F4F87E0D8018C938AE290E029
:1006300012969C938E93119789E290E014969C9366
:100640008E9313978BE290E016969C938E9315975A
:100650000E946D020E944902C8010E94E5038DE0DC
:100660000E944302809164008F778093640081E050
:100670008093B90082E18093B8008091BC008460CF
:100680008093BC0080E38AAF87E58BAF82E28CAFBA
:1006900023E0A70160E080ED0E94E80080E98AAFD6
:1006A00021E0A70167E080ED0E94E800302E212EB6
:1006B00090E1492E91E0592EC8010E9429046CEC6A
:1006C000C8010E94810464E4C8010E94810461E0C1
:1006D000C8010E940004BFEFEFE0F7E2B150E04034
:1006E000F040E1F700C0000060E0832D922D0E94F1
:1006F0000004832D922D0E9429046CEC832D922DF1
:100700000E9481046EEB832D922D0E94810434019E
:10071000C8010E94DB04D3018D933D01AE15BF05D6
:10072000B9F7C8010E94290420E040E050E060E0F1
:1007300080ED0E94E80048E0B70180ED0E941801BA
:100740006AA970E0762F662789A9682B882777FD2C
:100750008095982F0E94FB0820E030E040E85DE3A0
:100760000E9436099F938F937F936F93A0E0B1E02F
:10077000BF93AF931F92F0E2FF93BF92AF920E949C
:10078000410B8AAD1F928F938BAD1F928F938CADCF
:100790001F928F935F924F921F9220E12F93DF92CF
:1007A000CF920E94410B80E00E944602C5010E9448
:1007B000520280E40E944602C6010E9452020FB615
:1007C000F894DEBF0FBECDBF77CF25B7206125BF20
:1007D000DC011196ED91FC911297408121E030E00F
:1007E0000C9002C0220F331F0A94E2F720952423B5
:1007F00020838FEC97E00197F1F700C00000089587
:10080000FC01A181B28120816623B9F04C9181E085
:1008100090E0BC0102C0660F771F2A95E2F7462BD5
:100820004C93A581B6812C91008002C0880F991F3E
:100830000A94E2F7282B2C9308953C9181E090E0F4
:10084000022E01C0880F0A94EAF7809583238C93C7
:100850000895FC015FB7F894A181B2814C9181E0C9
:1008600090E09C01008002C0220F331F0A94E2F73F
:10087000422B4C93A581B6812C91008002C0880F39
:10088000991F0A94E2F7809582238C938FEC97E06E
:100890000197F1F700C00000A181B2812C9181E0A5
:1008A00090E0008002C0880F991F0A94E2F78095BB
:1008B00082238C9387EC90E00197F1F700C0000051
:1008C000A381B4818C9190E0008002C095958795BA
:1008D0000A94E2F780FF03C080E05FBF08958FEACB
:1008E00094E00197F1F700C00000A381B4818C91DE
:1008F00090E0008002C0959587950A94E2F7817098
:10090000ECCFCF93DF93FC0180E090E021E030E07A
:1009100070E0CFB7F894A181B281DC91A901008089
:1009200002C0440F551F0A94E2F7D42BDC93A58133
:10093000B681DC91A901008002C0440F551F0A94C2
:10094000E2F740954D234C934AE14A95F1F700C0F8
:10095000AB01082E02C0559547950A94E2F740FF77
:100960000DC0A181B281DC91A901008002C0440FB9
:10097000551F0A94E2F740954D234C93AFE3B1E045
:100980001197F1F700C00000A181B281DC91A901AB
:10099000008002C0440F551F0A94E2F740954D2392
:1009A0004C93CFBF01968830910509F0B2CF81E01A
:1009B000DF91CF910895CF93FC0120E030E080E0FB
:1009C00041E050E0CFB7F894A181B2819C91BA0187
:1009D000008002C0660F771F0A94E2F7962B9C9363
:1009E000A581B6819C91BA01008002C0660F771F75
:1009F0000A94E2F7609569236C9395E09A95F1F774
:100A00000000A181B2819C91BA01008002C0660FF2
:100A1000771F0A94E2F7609569236C93A0E4AA9586
:100A2000F1F7A381B4816C9170E0008002C07595EC
:100A300067950A94E2F76170AFEEB0E01197F1F7B5
:100A400000C00000B5E0BA95F1F70000CFBF662303
:100A500039F0BA01022E01C0660F0A94EAF7862B1C
:100A60002F5F3F4F2830310509F0ACCFCF9108956B
:100A7000CF92DF92FF920F931F93CF93DF931F923A
:100A8000CDB7DEB78C016B01F42EF60EFC1449F0E5
:100A9000F60161916F01C80149830E948104498177
:100AA000F5CF842F0F90DF91CF911F910F91FF9081
:100AB000DF90CF900895CF92DF92FF920F931F9314
:100AC000CF93DF931F92CDB7DEB78C016B01F42E6D
:100AD000F60EFC1449F0C80149830E94DB04F601BC
:100AE00081936F014981F5CF842F0F90DF91CF91D2
:100AF0001F910F91FF90DF90CF900895A3E1B0E098
:100B0000E4E8F5E00C94EA097C011B016A01FC01B0
:100B100017821682838181FF66C3BE016F5F7F4F9C
:100B20004B01F7019381F10193FD859193FF819131
:100B30001F01882309F453C3853239F493FD85914D
:100B400093FF81911F01853239F4B70190E00E9433
:100B50000F0B56016501E5CF10E0512C20E020324B
:100B6000A0F48B3269F030F4803259F0833269F4AA
:100B700020612CC08D3239F0803339F4216026C0D9
:100B80002260246023C0286021C027FD27C030EDEB
:100B9000380F3A3078F426FF06C0FAE01F9F300D78
:100BA0001124132F13C06AE0569E300D1124532ECA
:100BB00020620CC08E3221F426FD11C3206406C0D1
:100BC0008C3611F4206802C0883641F4F10193FD9F
:100BD000859193FF81911F018111C1CF9BEB980FEC
:100BE000933018F42061805E06C09BE9980F933023
:100BF00008F0AAC12F7E26FF16E02F73722E8536CD
:100C000021F4F22FF0647F2E08C0863621F4622F83
:100C10006068762E02C01111115077FE07C01C3398
:100C200048F444244394410E27E00BC0183030F4BC
:100C3000212F06C027E04CE3442E03C027E017E035
:100C4000412C560174E0A70EB11CF6016081718140
:100C500082819381042DA4010E94210A6C010981E3
:100C600000FF02C003FF06C071FC07C072FC08C091
:100C7000612C08C03DE2632E05C02BE2622E02C04B
:100C800090E2692E802F8C7099F1662011F084E03B
:100C900001C083E0851510F0512C0BC0581A73FC6D
:100CA00008C0B70180E290E00E940F0B5A94C9F788
:100CB000F3CF662029F0B701862D90E00E940F0B3C
:100CC00003FD03C00CE610E002C008E610E0F72DBB
:100CD000F0717F2EF8018491882309F476C2711097
:100CE0008052B70190E00E940F0B0F5F1F4FF2CFB1
:100CF00077FE0FC04C0C04FF04C08A81813309F4D5
:100D00004A94141474F5F8E0F41578F588E0482E48
:100D10002CC076FC2AC0812F90E08C159D059CF09C
:100D20006CEFC6166FEFD60674F0772D7068772ECD
:100D30000AC0E2E0F0E0EC0FFD1FE10FF11D808141
:100D4000803319F411501111F4CF77FE0EC04424F2
:100D50004394410E812F90E0C816D9062CF41C193B
:100D600004C04424439401C010E077FE07C01C1463
:100D70001D043CF496012F5F3F4F05C025E030E095
:100D800002C021E030E0662011F02F5F3F4F1123B9
:100D900031F0412F50E04F5F5F4F240F351F452D3D
:100DA00050E02417350714F4521A01C0512C872D36
:100DB000897049F4552039F0B70180E290E00E9433
:100DC0000F0B5A94F7CF662029F0B701862D90E0DB
:100DD0000E940F0B73FC09C0552039F0B70180E366
:100DE00090E00E940F0B5A94F7CF77FE5FC09C2DC6
:100DF0008D2DD7FE02C090E080E0692E782E40E075
:100E000050E0C601841991099D878C8796012619A7
:100E10003709280D391D812F90E0EE27FF27E81BA9
:100E2000F90BFF87EE87FFEF6F167F0669F4B701B6
:100E30008EE290E02B8B3A8B488B598B0E940F0BE4
:100E4000598948893A892B89C614D70454F06C858E
:100E50007D85661577052CF4F901E40FF51F818176
:100E600001C080E371E0671A71084F5F5F4FEE8544
:100E7000FF856E167F066CF0B70190E02B8B3A8BE6
:100E8000488B598B0E940F0B2B893A8948895989C5
:100E9000CACF6C147D0439F49A81963318F49533D3
:100EA00011F404FF81E3B70190E04BC08A818133E4
:100EB00009F00F7EB70190E00E940F0B111105C0E1
:100EC00074FE18C085E490E017C0B7018EE290E090
:100ED0000E940F0B82E066246394680EF401E80F11
:100EE000F11D8081B70190E00E940F0B115041F37A
:100EF000862DF1CF85E690E0B7010E940F0BD7FC5D
:100F000005C0C114D10439F404FF05C0D194C194C3
:100F1000D1088DE201C08BE2B70190E00E940F0B77
:100F200080E36AE0C616D1042CF08F5FFAE0CF1A96
:100F3000D108F7CFB70190E00E940F0BB701C601AF
:100F4000C0960E940F0B41C1833631F0833779F090
:100F5000833509F058C021C0560172E0A70EB11CBC
:100F6000F6018081898301E010E0640114C056011C
:100F7000F2E0AF0EB11CF601C080D18026FF03C0A5
:100F8000612F70E002C06FEF7FEFC6012B8B0E94D4
:100F9000040B8C012B892F7715C05601F2E0AF0EA0
:100FA000B11CF601C080D18026FF03C0612F70E024
:100FB00002C06FEF7FEFC6012B8B0E94F90A8C01F4
:100FC0002B892068722E23FD1AC0852D90E008170A
:100FD0001907A8F4B70180E290E00E940F0B5A9421
:100FE000F4CFF60177FC859177FE81916F01B7010F
:100FF00090E00E940F0B51105A94015011090115F5
:10100000110579F7E2C0843611F0893651F55601A1
:1010100027FF09C0F4E0AF0EB11CF60160817181B9
:10102000828193810AC0F2E0AF0EB11CF6016081AB
:101030007181882777FD8095982F022F0F7697FF73
:1010400008C090958095709561957F4F8F4F9F4F09
:1010500000682AE030E0A4010E94710BC82EC81875
:101060003EC0022F853721F40F7E2AE030E01DC0FC
:10107000097F8F3691F018F4883559F0B0C0803769
:1010800019F0883711F0ABC0006104FF09C004609B
:1010900007C024FF08C0066006C028E030E005C095
:1010A00020E130E002C020E132E0560107FF09C034
:1010B000F4E0AF0EB11CF6016081718182819381F1
:1010C00008C0F2E0AF0EB11CF6016081718180E0D2
:1010D00090E0A4010E94710BC82EC8180F7706FF7C
:1010E0000BC0202F2E7FC11650F404FF0AC002FD52
:1010F00008C0202F2E7E05C0DC2C202F03C0DC2C46
:1011000001C0D12E24FF0DC0FE01EC0DF11D808128
:10111000803311F4297E09C022FF06C0D394D394F2
:1011200004C0822F867809F0D39423FD13C020FFDA
:1011300006C01C2DD51418F4150D1D19D52CD51469
:1011400068F4B70180E290E02B8B0E940F0BD394E0
:101150002B89F5CFD51410F45D1801C0512C24FF54
:1011600012C0B70180E390E02B8B0E940F0B2B89FC
:1011700022FF17C021FF03C088E590E002C088E786
:1011800090E0B7010CC0822F867859F021FD02C093
:1011900080E201C08BE227FD8DE2B70190E00E9462
:1011A0000F0BC11638F4B70180E390E00E940F0BDB
:1011B0001150F7CFCA94F401EC0DF11D8081B701F5
:1011C00090E00E940F0BC110F5CF552009F4C2CC5E
:1011D000B70180E290E00E940F0B5A94F6CFF7011E
:1011E0008681978102C08FEF9FEF6396E2E10C94B6
:1011F000060AE89409C097FB3EF490958095709597
:1012000061957F4F8F4F9F4F9923A9F0F92F96E952
:10121000BB279395F695879577956795B795F111C7
:10122000F8CFFAF4BB0F11F460FF1BC06F5F7F4F64
:101230008F4F9F4F16C0882311F096E911C0772376
:1012400021F09EE8872F762F05C0662371F096E87F
:10125000862F70E060E02AF09A95660F771F881F4E
:10126000DAF7880F9695879597F908950BD078C08F
:1012700069D028F06ED018F0952309F05AC05FC0ED
:101280001124A2C07ED0A0F3959FD1F3950F50E01A
:10129000551F629FF001729FBB27F00DB11D639F28
:1012A000AA27F00DB11DAA1F649F6627B00DA11DCE
:1012B000661F829F2227B00DA11D621F739FB00D74
:1012C000A11D621F839FA00D611D221F749F3327E4
:1012D000A00D611D231F849F600D211D822F762F7D
:1012E0006A2F11249F5750408AF0E1F088234AF07A
:1012F000EE0FFF1FBB1F661F771F881F91505040C6
:10130000A9F79E3F510570F014C05EC05F3FECF33B
:10131000983EDCF3869577956795B795F795E795B1
:101320009F5FC1F7FE2B880F911D9695879597F9C2
:10133000089597F99F6780E870E060E008959FEF57
:1013400080EC089500240A9416161706180609065C
:10135000089500240A94121613061406050608952B
:10136000092E0394000C11F4882352F0BB0F40F4B3
:10137000BF2B11F460FF04C06F5F7F4F8F4F9F4FF3
:10138000089557FD9058440F551F59F05F3F71F075
:101390004795880F97FB991F61F09F3F79F08795DC
:1013A0000895121613061406551FF2CF4695F1DF65
:1013B00008C0161617061806991FF1CF86957105F5
:1013C000610508940895E894BB2766277727CB0129
:1013D00097F908952F923F924F925F926F927F926A
:1013E0008F929F92AF92BF92CF92DF92EF92FF9235
:1013F0000F931F93CF93DF93CDB7DEB7CA1BDB0BE1
:101400000FB6F894DEBF0FBECDBF09942A88398885
:1014100048885F846E847D848C849B84AA84B9848C
:10142000C884DF80EE80FD800C811B81AA81B98198
:10143000CE0FD11D0FB6F894DEBF0FBECDBFED01AC
:101440000895283008F027E03327DA01990F311D7D
:1014500087FD916000966105710539F432602E5F59
:101460003D9330E32A95E1F708959F3F30F08038AF
:101470007105610509F03C5F3C5F3D93913008F0D8
:101480008068911DDF93CF931F930F93FF92EF928C
:10149000192F987F9695E92F96959695E90FFF2736
:1014A000E653FF4F99273327EE24FF24A701E701D6
:1014B00005900894079428F4360FE71EF81E491F7C
:1014C000511D660F771F881F991F0694A1F705907D
:1014D000079428F4E70EF81E491F561FC11D770F09
:1014E000881F991F661F0694A1F70590079428F49A
:1014F000F80E491F561FC71FD11D880F991F661F61
:10150000771F0694A1F70590079420F4490F561F02
:10151000C71FD81F990F661F771F881F0694A9F74A
:1015200084911095177041F0D695C79557954795BA
:10153000F794E7941A95C1F7E0E7F0E06894159006
:10154000159135916591959105907FE27395E1181C
:10155000F10A430B560BC90BD009C0F7E10CF11E81
:10156000431F561FC91FD01D7EF4703311F48A9596
:10157000E6CFE894015030F0080F0AF40027021774
:1015800008F4202F2395022F7A3328F079E37D93F6
:101590002A95E9F710C07D932A9589F606949795C8
:1015A0006795379517951794E118F10A430B560B79
:1015B000C90BD00998F023957E9173957A3308F082
:1015C00070E37C932013B8F77E9170617D9330F0C7
:1015D000839571E37D9370E32A95E1F71124EF90F1
:1015E000FF900F911F91CF91DF91992787FD9095E3
:1015F0000895FC010590615070400110D8F7809566
:1016000090958E0F9F1F0895FC01615070400190CE
:101610000110D8F7809590958E0F9F1F08950F9316
:101620001F93CF93DF93182F092FEB018B8181FD3F
:1016300003C08FEF9FEF20C082FF10C04E815F81FB
:101640002C813D81421753077CF4E881F9819F0189
:101650002F5F3F4F39832883108306C0E885F985C3
:10166000812F0995892B29F72E813F812F5F3F4FCD
:101670003F832E83812F902FDF91CF911F910F9168
:101680000895AEE0B0E0E7E4FBE00C94F8090D89C2
:101690001E898F89988D26E02C831A83098397FFF2
:1016A00002C080E090E801979E838D83AE01455E85
:1016B0005F4F698D7A8DCE0101960E947E054D8126
:1016C0005E8157FD0AC02F813885421753070CF4FD
:1016D0009A01F801E20FF31F10822E96E4E00C94B9
:1016E000140AFA01AA27283051F1203181F1E89437
:1016F0006F936E7F6E5F7F4F8F4F9F4FAF4FB1E005
:101700003ED0B4E03CD0670F781F891F9A1FA11DFF
:10171000680F791F8A1F911DA11D6A0F711D811D00
:10172000911DA11D20D009F468943F912AE0269FC5
:1017300011243019305D3193DEF6CF010895462F24
:101740004770405D4193B3E00FD0C9F7F6CF462F05
:101750004F70405D4A3318F0495D31FD405241936E
:1017600002D0A9F7EACFB4E0A6959795879577952B
:101770006795BA95C9F700976105710508959B01B2
:10178000AC010A2E06945795479537952795BA953B
:10179000C9F7620F731F841F951FA01D0895F89449
:0217A000FFCF79
:1017A20054656D703A2025322E3366205B435D000E
:1017B20054696D653A202532783A253032783A25D7
:0417C2003032780049
:00000001FF
