:100000000C9434000C9451000C9451000C94510049
:100010000C9451000C9451000C9451000C9451001C
:100020000C9451000C9451000C9451000C9451000C
:100030000C9451000C9451000C9453000C945100FA
:100040000C9451000C9451000C9420010C9451001C
:100050000C9451000C9451000C9451000C945100DC
:100060000C9451000C94510011241FBECFEFD8E026
:10007000DEBFCDBF11E0A0E0B1E0E4E6FEE002C0EB
:1000800005900D92AA33B107D9F711E0AAE3B1E0C8
:1000900001C01D92A738B107E1F70E9481000C94BE
:1000A00030070C9400001F920F920FB60F9211248C
:1000B0008F939F93AF93BF9380913E01811113C0A3
:1000C00080913A0190913B01A0913C01B0913D019A
:1000D0000196A11DB11D80933A0190933B01A0931D
:1000E0003C01B0933D0180913E018F5F80933E01C2
:1000F000BF91AF919F918F910F900FBE0F901F9066
:100100001895CF93DF9300D000D0CDB7DEB760E86D
:1001100075E280E090E00E94DB0181E090E00E94C7
:100120005E010E946C010E94CF0180E090E00E947D
:1001300091032FEF30E040E850E060E070E080E0B5
:1001400090E00E940103AB01BC0180E090E00E94BE
:10015000C50380E090E00E94E802C12CD12C76011A
:100160008CE3882E912CA12CB12C9CE3292E312CD0
:1001700008E110E080913A0190913B01A0913C018F
:10018000B0913D01C816D906EA06FB0609F451C034
:10019000C0903A01D0903B01E0903C01F0903D01CD
:1001A00060913A0170913B0180913C0190913D0139
:1001B00020913A0130913B0140913C0150913D0129
:1001C00029833A834B835C8340903A0150903B01F2
:1001D00060903C0170903D01A50194010E941D04B6
:1001E0007F936F9369817A818B819C81A5019401B2
:1001F0000E941D04C901B1010E9409049F938F93BD
:10020000C301B20120E13EE040E050E00E941D0445
:10021000C901B8010E9409049F938F93AAE2B1E03B
:10022000BF93AF930E946D040FB6F894DEBF0FBE6C
:10023000CDBF8FE39CE90197F1F700C000009ACF92
:100240001F920F920FB60F9211248F939F93EF93EB
:10025000FF93CF93DF9300D01F92CDB7DEB780918D
:10026000C00084FD1AC08091C6008B8380917F01FD
:1002700090E001968F7399278A839A8180918001FB
:10028000981771F0E0917F01F0E08B81E15CFE4F07
:1002900080838A8180937F0103C08091C600898317
:1002A0000F900F900F90DF91CF91FF91EF919F9161
:1002B0008F910F900FBE0F901F9018959091C100D5
:1002C0009F7B9093C10080FF05C08091C100806832
:1002D0008093C100789408958EE091E0909384011A
:1002E0008093830180E091E090938201809381016B
:1002F000089530917F0120918001321791F0E091B3
:100300008001F0E0E15CFE4F2081FC0120838091C0
:10031000800190E001968F7399278093800181E09E
:10032000089580E00895CF93DF931F92CDB7DEB795
:100330001982CE0101960E9479018823D1F3898127
:100340000F90DF91CF910895FC01860F971FE8175A
:10035000F90741F02091C00025FFFCCF21912093A7
:10036000C600F5CFCB010895CF93DF931F92CDB791
:10037000DEB7898361E070E0CE0101960E94A4019E
:100380000F90DF91CF910895CF93C82F8A3019F441
:100390008DE00E94C4018C2FCF910C94B401109277
:1003A0007F01109280018091C00087FF03C080917F
:1003B000C600F9CF0895CF92DF92EF92FF926B01C2
:1003C0007C01809164008D7F809364001092C00056
:1003D000C11486E9D806E104F10409F47FC0B0F540
:1003E000B0E8CB16B5E2DB06E104F10409F4CBC0BA
:1003F00098F4A0E6CA16A9E0DA06E104F10409F4CB
:1004000062C0B0ECCB16B2E1DB06E104F10409F006
:100410008EC02FEC30E0B9C0C1148BE4D806E104E3
:10042000F10409F458C0A0E8CA16A0E7DA06E1040E
:10043000F10409F456C0B0E4CB16B8E3DB06E104DE
:10044000F10409F074C024E430E09FC0C11484E8D2
:10045000D80683E0E806F10409F451C0D8F4C114C9
:10046000BCE2DB06B1E0EB06F104F1F1C11482EC71
:10047000D80681E0E806F104D1F1C114A1EEDA0654
:10048000E104F10409F053C08091C00082608093C0
:10049000C00027C0B0E2CB16B1EADB06B7E0EB063E
:1004A000F104A9F180E4C81682E4D8068FE0E806DA
:1004B000F104A9F1A0E9CA16A0EDDA06A3E0EA0664
:1004C000F104A9F529C08091C00082608093C0002A
:1004D00020E433E05AC023E330E057C029E130E0A4
:1004E00054C022E230E051C02CE030E04EC0809198
:1004F000C00082608093C00020E130E046C080915F
:10050000C00082608093C00028E030E03EC080914F
:10051000C00082608093C00023E030E036C080914C
:10052000C00082608093C00021E030E02EC0809146
:10053000C00082608093C00060E079E08DE390E0CD
:10054000A70196010E941D0421503109410951095A
:1005500056954795379527952115B0E13B07A8F0AB
:100560001092C00060E874E88EE190E0A701960167
:100570000E941D04215031094109510956954795A2
:100580003795279502C027E630E03093C5002093C9
:10059000C40082E4EFE3F1E0DF011D928A95E9F700
:1005A0008091C20086608093C2008091C10080610A
:1005B0008093C1008091C10088608093C1000E9437
:1005C000CF0180E090E0FF90EF90DF90CF90089512
:1005D0008130910551F018F0029769F008958091EB
:1005E0006E00826080936E00089580916F0082603B
:1005F00080936F00089580917000826080937000F6
:1006000008953F924F925F926F927F928F929F9246
:10061000AF92BF92CF92DF92EF92FF920F931F9310
:10062000CF93DF93CDB7DEB762970FB6F894DEBFF6
:100630000FBECDBF890126E0ECE1F1E0DE011996A5
:1006400001900D922A95E1F728E0E2E2F1E0DE0167
:10065000119601900D922A95E1F71F86188A198A42
:100660001A8A029729F05E0189E0A80EB11C03C026
:10067000CE0101965C016A017B01CC0CDD1CEE1CF5
:10068000FF1C3A8888248394912C412C24E2522E1A
:1006900024EF622E712CF501E30DF11DD4010080D1
:1006A00002C0AA0FBB1F0A94E2F7A70196010E949D
:1006B00001049B01AC01C301B2010E941D043394EB
:1006C0000217130748F03A8A21503109021713071D
:1006D00050F0388B2F8709C0F501E30DF11D8081A3
:1006E0008111D9CFF0CF188B0F876F8578898989D1
:1006F0009A8962960FB6F894DEBF0FBECDBFDF9128
:10070000CF911F910F91FF90EF90DF90CF90BF900E
:10071000AF909F908F907F906F905F904F903F90A1
:1007200008958130910579F018F00297F9F0089555
:10073000809164008F7D8093640082E084BD15BC4D
:1007400016BC17BC089580916400877F8093640075
:100750001092800088E080938100109285001092B2
:10076000840010928900109288000895809164009E
:100770008F7B8093640082E08093B0001092B10080
:100780001092B2001092B30008958130910579F073
:1007900018F0029729F1089585B5887F85BD95B534
:1007A000872F8770892B85BD47BD16BC0895809122
:1007B0008100887F8093810090918100872F8770CE
:1007C000892B8093810040938800452F562F672FF7
:1007D0007727409389001092840010928500089535
:1007E0008091B100887F8093B1009091B100872FF4
:1007F0008770892B8093B1004093B3001092B200B0
:100800000895B7FF0C943F040E943F04821B930B92
:10081000089597FB072E16F4009407D077FD09D0B2
:100820000E944A0407FC05D03EF4909581959F4FA5
:100830000895709561957F4F0895A1E21A2EAA1B25
:10084000BB1BFD010DC0AA1FBB1FEE1FFF1FA21780
:10085000B307E407F50720F0A21BB30BE40BF50B7D
:10086000661F771F881F991F1A9469F76095709506
:10087000809590959B01AC01BD01CF0108950E9428
:100880005E04A59F900DB49F900DA49F800D911DB7
:1008900011240895AA1BBB1B51E107C0AA1FBB1F4F
:1008A000A617B70710F0A61BB70B881F991F5A95FC
:1008B000A9F780959095BC01CD010895A29FB00144
:1008C000B39FC001A39F700D811D1124911DB29F84
:1008D000700D811D1124911D0895A0E0B0E0E3E7A3
:1008E000F4E00C940907FE01359661917191AF0116
:1008F00080918301909184010E948104E2E00C9434
:100900002507ACE0B0E0E7E8F4E00C94F9067C01E0
:100910006B018A01FC0117821682838181FFBDC1B0
:10092000CE0101964C01F7019381F60193FD85916B
:1009300093FF81916F01882309F4ABC1853239F4AB
:1009400093FD859193FF81916F01853229F4B70161
:1009500090E00E946906E7CF512C312C20E0203234
:10096000A0F48B3269F030F4803259F0833269F4AC
:1009700020612CC08D3239F0803339F4216026C0DB
:100980002260246023C0286021C027FD27C030EDED
:10099000380F3A3078F426FF06C0FAE05F9E300D3B
:1009A0001124532E13C08AE0389E300D1124332EAB
:1009B00020620CC08E3221F426FD6BC1206406C07B
:1009C0008C3611F4206802C0883641F4F60193FD9C
:1009D000859193FF81916F018111C1CF982F9F7DE8
:1009E0009554933028F40C5F1F4FFFE3F9830DC03B
:1009F000833631F0833771F0833509F05BC022C054
:100A0000F801808189830E5F1F4F44244394512C49
:100A1000540115C03801F2E06F0E711CF801A0807E
:100A2000B18026FF03C0652D70E002C06FEF7FEF3D
:100A3000C5012C870E945E062C0183012C852F772F
:100A4000222E17C03801F2E06F0E711CF801A08051
:100A5000B18026FF03C0652D70E002C06FEF7FEF0D
:100A6000C5012C870E9453062C012C852068222E5C
:100A7000830123FC1BC0832D90E048165906B0F477
:100A8000B70180E290E00E9469063A94F4CFF50144
:100A900027FC859127FE81915F01B70190E00E94BC
:100AA000690631103A94F1E04F1A5108411451048B
:100AB00071F7E5C0843611F0893639F5F80127FF62
:100AC00007C060817181828193810C5F1F4F08C0D4
:100AD00060817181882777FD8095982F0E5F1F4F69
:100AE0002F76B22E97FF09C09095809570956195ED
:100AF0007F4F8F4F9F4F2068B22E2AE030E0A40135
:100B00000E949B06A82EA81844C0853729F42F7E82
:100B1000B22E2AE030E025C0F22FF97FBF2E8F36AB
:100B2000C1F018F4883579F0B4C0803719F08837EF
:100B300021F0AFC02F2F2061B22EB4FE0DC08B2D3F
:100B40008460B82E09C024FF0AC09F2F9660B92E7A
:100B500006C028E030E005C020E130E002C020E11E
:100B600032E0F801B7FE07C0608171818281938114
:100B70000C5F1F4F06C06081718180E090E00E5FC6
:100B80001F4FA4010E949B06A82EA818FB2DFF77DB
:100B9000BF2EB6FE0BC02B2D2E7FA51450F4B4FE35
:100BA0000AC0B2FC08C02B2D2E7E05C07A2C2B2D3E
:100BB00003C07A2C01C0752C24FF0DC0FE01EA0D84
:100BC000F11D8081803311F4297E09C022FF06C007
:100BD0007394739404C0822F867809F0739423FD74
:100BE00013C020FF06C05A2C731418F4530C571866
:100BF000732C731468F4B70180E290E02C870E9494
:100C0000690673942C85F5CF731410F4371801C05E
:100C1000312C24FF12C0B70180E390E02C870E94A2
:100C200069062C8522FF17C021FF03C088E590E0EC
:100C300002C088E790E0B7010CC0822F867859F097
:100C400021FD02C080E201C08BE227FD8DE2B701E9
:100C500090E00E946906A51438F4B70180E390E0A3
:100C60000E9469065A94F7CFAA94F401EA0DF11D87
:100C70008081B70190E00E946906A110F5CF332072
:100C800009F451CEB70180E290E00E9469063A94DF
:100C9000F6CFF7018681978102C08FEF9FEF2C96E8
:100CA000E2E10C941507FC010590615070400110C1
:100CB000D8F7809590958E0F9F1F0895FC01615085
:100CC000704001900110D8F7809590958E0F9F1F6E
:100CD00008950F931F93CF93DF93182F092FEB01E4
:100CE0008B8181FD03C08FEF9FEF20C082FF10C07A
:100CF0004E815F812C813D81421753077CF4E8814E
:100D0000F9819F012F5F3F4F39832883108306C0ED
:100D1000E885F985812F0995892B29F72E813F8157
:100D20002F5F3F4F3F832E83812F902FDF91CF91F5
:100D30001F910F910895FA01AA27283051F120310F
:100D400081F1E8946F936E7F6E5F7F4F8F4F9F4F5F
:100D5000AF4FB1E03ED0B4E03CD0670F781F891FA1
:100D60009A1FA11D680F791F8A1F911DA11D6A0F6F
:100D7000711D811D911DA11D20D009F468943F9122
:100D80002AE0269F11243019305D3193DEF6CF0121
:100D90000895462F4770405D4193B3E00FD0C9F7E7
:100DA000F6CF462F4F70405D4A3318F0495D31FD54
:100DB0004052419302D0A9F7EACFB4E0A6959795A7
:100DC000879577956795BA95C9F70097610571057D
:100DD00008959B01AC010A2E0694579547953795C7
:100DE0002795BA95C9F7620F731F841F951FA01D21
:100DF00008952F923F924F925F926F927F928F92BF
:100E00009F92AF92BF92CF92DF92EF92FF920F9399
:100E10001F93CF93DF93CDB7DEB7CA1BDB0B0FB6A3
:100E2000F894DEBF0FBECDBF09942A883988488860
:100E30005F846E847D848C849B84AA84B984C884F6
:100E4000DF80EE80FD800C811B81AA81B981CE0FED
:100E5000D11D0FB6F894DEBF0FBECDBFED010895D2
:040E6000F894FFCF34
:100E640000000001000000000000930100000000E9
:100E7400000200000000C401000000000003060896
:100E84000A000003050607080A00253032643A25E3
:0A0E94003032643A253032640A005F
:00000001FF
